:020000040800F2
:100000000000022025280008BF190008C7190008B1
:10001000CF190008D7190008DF19000800000000F8
:10002000000000000000000000000000E7190008C8
:10003000F519000800000000031A0008111A000852
:10004000752800087528000875280008752800081C
:10005000752800087528000875280008752800080C
:1000600075280008752800087528000875280008FC
:1000700075280008752800087528000875280008EC
:1000800075280008752800087528000875280008DC
:100090007528000875280008752800081D1A000832
:1000A00075280008D51A000875280008752800086A
:1000B00075280008752800087528000875280008AC
:1000C000752800087528000875280008752800089C
:1000D00075280008E91A0008752800087528000826
:1000E000752800087528000875280008752800087C
:1000F000752800087528000875280008752800086C
:100100007528000875280008FD1A000875280008E1
:10011000752800087528000875280008752800084B
:10012000752800087528000875280008752800083B
:10013000752800087528000875280008752800082B
:10014000752800087528000875280008752800081B
:10015000752800087528000875280008752800080B
:1001600075280008752800087528000875280008FB
:100170007528000875280008211B0008752800084C
:1001800075280008752800087528000875280008DB
:100190007528000800000000752800087528000870
:1001A00075280008752800087528000875280008BB
:1001B00075280008752800087528000875280008AB
:1001C000752800087528000875280008752800089B
:0801D0007528000875280008DD
:1001E00010B5054C237833B9044B13B10448AFF371
:1001F00000800123237010BD680000200000000073
:100200002CB8000808B5034B1BB103490348AFF3F2
:10021000008008BD000000006C0000202CB8000821
:1002200001F0FF01102A2BDB10F0070F08D010F8A7
:10023000013B013A8B422DD010F0070F42B3F6D1AB
:10024000F0B441EA012141EA014122F007047FF0C4
:1002500000070023F0E80256083C85EA010586EA1B
:10026000010685FA47F5A3FA87F586FA47F6A5FA57
:1002700087F68EB9EED1F0BC01F0FF0102F0070263
:1002800032B110F8013B013A83EA010313B1F8D10E
:100290000020704701387047002D06BF35460338EF
:1002A000073815F0010F07D1013015F4807F02BF28
:1002B000013015F4C03F0130F0BC0138704700BF79
:1002C00053B94AB9002908BF00281CBF4FF0FF31BD
:1002D0004FF0FF3000F088B9ADF1080C6DE904CEA5
:1002E00000F006F8DDF804E0DDE9022304B0704711
:1002F0002DE9F047089D8E4604468846002B4AD1DA
:100300008A42174662D9B2FA82F64EB1C6F120038C
:1003100001FA06F820FA03F3B74043EA0808B440AC
:100320004FEA174E1FFA87FCB8FBFEF1230C0EFBB9
:10033000118843EA084301FB0CF29A4209D9FB18E1
:1003400001F1FF3080F0EA809A4240F2E780023902
:100350003B449A1AA3B2B2FBFEF00EFB102243EA12
:10036000024300FB0CFC9C4509D9FB1800F1FF324D
:1003700080F0D6809C4540F2D3803B44023840EA6E
:100380000140A3EB0C0300211DB1F3400022C5E99D
:100390000032BDE8F0878B4205D90DB1C5E90001F7
:1003A00000210846F5E7B3FA83F1002946D17345E9
:1003B00002D3824200F20581841A6EEB030201200F
:1003C0009046002DE5D0C5E90048E2E7002A00F09C
:1003D0009080B2FA82F6002E40F0A4808A1A030CB4
:1003E0004FEA174E80B2BCB20121B2FBFEFC0EFBFD
:1003F0001C2243EA024304FB0CF29A4207D9FB1881
:100400000CF1FF3802D29A4200F2E080C4469B1AF7
:10041000B3FBFEF20EFB123340EA034302FB04F48B
:100420009C4207D9FB1802F1FF3002D29C4200F235
:10043000CA8002461B1B42EA0C40A5E7C1F1200618
:100440008B4022FA06F71F430EFA01F420FA06F356
:100450002EFA06FE4FEA1749234300FA01F81FFA65
:1004600087FCBEFBF9F01C0C09FB10EE44EA0E44BD
:1004700000FB0CFEA64502FA01F209D93C1900F175
:10048000FF3A80F09C80A64540F2998002383C44B7
:10049000A4EB0E041FFA83FEB4FBF9F309FB13442B
:1004A0004EEA044403FB0CFCA44508D93C1903F1B3
:1004B000FF3E80F08280A4457FD9023B3C4443EA62
:1004C0000040A4EB0C04A0FB02EC64457346E1463B
:1004D00062D35FD05DB1B8EB030264EB090404FAA8
:1004E00006F622FA01F31E43CC40C5E90064002160
:1004F0004FE7B1FBF2FC010C41EA0E4180B240EA49
:1005000001423B4638463C46B846BE462026B1FB33
:10051000F7F1A2EB080241EA0C4166E7014618E751
:1005200010462CE7C6F120022EFA02F3B740B14084
:1005300020FA02F24FEA174E0A43B3FBFEF8BCB2B0
:100540000EFB1833110C41EA034108FB04F9B040DB
:1005500089454FEA104380B23ED9791808F1FF3C33
:1005600001D289451FD8A1EB0901B1FBFEF909FBB6
:1005700004F80EFB191192B242EA0142424529D217
:10058000BA1809F1FF31C4D24245C2D2A9F1020121
:100590003A44BEE7F0459DD2BEEB02036CEB070C7C
:1005A0000138E14696E7A7EB09094944A8F1020C96
:1005B000B1FBFEF909FB04F8DBE773467FE7504621
:1005C00066E70846FDE63B44023A33E7ACF1020C2D
:1005D0003B441CE749469CE7A1EB0901C446B1FB3B
:1005E000FEF909FB04F8C4E7704700BF80B58CB082
:1005F00000AF07F1240300221A605A609A603B1D85
:100600002022002118460AF078FA40F28403C2F250
:1006100000034FF0A0421A6040F28403C2F20003CC
:100620004FF440325A6040F28403C2F200030022C9
:100630009A6040F28403C2F200030022DA6040F2C2
:100640008403C2F2000300221A6140F28403C2F262
:10065000000300225A6140F28403C2F20003042224
:100660009A6140F28403C2F2000300221A7740F23A
:100670008403C2F2000300225A7740F28403C2F2DC
:10068000000301221A6240F28403C2F20003002236
:1006900083F8242040F28403C2F200030022DA62CD
:1006A00040F28403C2F2000300221A6340F2840382
:1006B000C2F20003002283F8382040F28403C2F221
:1006C00000030022DA6340F28403C2F20003002236
:1006D00083F8402040F28400C2F2000002F010FCD7
:1006E0000346002B01D000F0CAFD00237B6207F116
:1006F0002403194640F28400C2F2000003F006FE13
:100700000346002B01D000F0BAFD0223C0F23043B3
:100710007B600623BB600423FB600023C4F27F03DD
:100720003B6104237B610023BB613B1D194640F202
:100730008400C2F2000002F0D6FF0346002B01D075
:1007400000F09DFD00BF3037BD4680BD80B588B04C
:1007500000AF3B462022002118460AF0CEF940F2B5
:10076000F002C2F200024FF48073C5F2000313607E
:1007700040F2F003C2F200034FF440325A6040F2FC
:10078000F003C2F2000300229A6040F2F003C2F2CA
:1007900000030022DA6040F2F003C2F200030022FC
:1007A0001A6140F2F003C2F2000300225A6140F2E3
:1007B000F003C2F2000304229A6140F2F003C2F295
:1007C000000300221A7740F2F003C2F20003002275
:1007D0005A7740F2F003C2F2000301221A6240F29B
:1007E000F003C2F20003002283F8242040F2F00359
:1007F000C2F200030022DA6240F2F003C2F2000308
:1008000000221A6340F2F003C2F20003002283F8D0
:10081000382040F2F003C2F200030022DA6340F213
:10082000F003C2F20003002283F8402040F2F000FF
:10083000C2F2000002F064FB0346002B01D000F07E
:100840001EFD0823C0F690433B6006237B60042313
:10085000BB600023C4F27F03FB6004233B610023E1
:100860007B613B46194640F2F000C2F2000002F004
:100870003AFF0346002B01D000F001FD00BF2037F6
:10088000BD4680BD80B588B000AF3B462022002128
:1008900018460AF032F940F25C12C2F200024FF43C
:1008A000C063C5F20003136040F25C13C2F20003A0
:1008B0004FF480125A6040F25C13C2F2000300222F
:1008C0009A6040F25C13C2F200030022DA6040F248
:1008D0005C13C2F2000300221A6140F25C13C2F200
:1008E000000300225A6140F25C13C2F200030422AA
:1008F0009A6140F25C13C2F2000300221A7740F2C0
:100900005C13C2F2000300225A7740F25C13C2F279
:10091000000301221A6240F25C13C2F200030022BB
:1009200083F8242040F25C13C2F200030022DA6252
:1009300040F25C13C2F2000300221A6340F25C131F
:10094000C2F20003002283F8382040F25C13C2F2A6
:1009500000030022DA6340F25C13C2F200030022BB
:1009600083F8402040F25C10C2F2000002F0C8FAA6
:100970000346002B01D000F082FC0223C0F230437A
:100980003B6006237B600623BB600023C4F27F0329
:10099000FB6004233B6100237B613B46194640F228
:1009A0005C10C2F2000002F09EFE0346002B01D054
:1009B00000F065FC00BF2037BD4680BD80B5A2B009
:1009C00000AF786007F1740300221A605A609A60E1
:1009D000DA601A6107F120035422002118460AF058
:1009E0008CF87B681B68B3F1A04F59D14FF40043DA
:1009F0003B624FF000537B6607F12003184605F079
:100A0000DFFC0346002B01D000F039FC40F2C81394
:100A1000C2F200031B685A1C40F2C813C2F2000362
:100A20001A6040F2C813C2F200031B68012B14D1F4
:100A30004FF48053C4F20203DA6C4FF48053C4F2D3
:100A4000020342F40052DA644FF48053C4F202030A
:100A5000DB6C03F40053FB61FB694FF48053C4F279
:100A60000203DA6C4FF48053C4F2020342F0010235
:100A7000DA644FF48053C4F20203DB6C03F0010329
:100A8000BB61BB6903237B670323BB670023FB6751
:100A900007F1740319464FF0904004F0EEFAB1E00C
:100AA0007B681A684FF48073C5F200039A4259D1EB
:100AB0004FF400433B624FF000537B6607F1200385
:100AC000184605F07DFC0346002B01D000F0D7FB53
:100AD00040F2C813C2F200031B685A1C40F2C8134C
:100AE000C2F200031A6040F2C813C2F200031B688E
:100AF000012B14D14FF48053C4F20203DA6C4FF48B
:100B00008053C4F2020342F40052DA644FF480537B
:100B1000C4F20203DB6C03F400537B617B694FF486
:100B20008053C4F20203DA6C4FF48053C4F2020320
:100B300042F00102DA644FF48053C4F20203DB6C2A
:100B400003F001033B613B69C0237B670323BB6761
:100B50000023FB6707F1740319464FF0904004F03F
:100B60008CFA4FE07B681A684FF4C063C5F200034B
:100B70009A4247D14FF480333B624FF00043BB664B
:100B800007F12003184605F01BFC0346002B01D09B
:100B900000F075FB4FF48053C4F20203DA6C4FF49B
:100BA0008053C4F2020342F48042DA644FF480536B
:100BB000C4F20203DB6C03F48043FB60FB684FF478
:100BC0008053C4F20203DA6C4FF48053C4F2020380
:100BD00042F00102DA644FF48053C4F20203DB6C8A
:100BE00003F00103BB60BB684FF440737B670323D2
:100BF000BB670023FB6707F1740319464FF0904071
:100C000004F03BFA00BF8837BD4680BD80B58CB08C
:100C100000AF3B4630220021184609F06EFF40F23B
:100C2000CC12C2F200024FF40063C5F2000313605D
:100C300040F2CC10C2F2000003F0B0FD0346002BDE
:100C400001D000F01CFB00233B6000233B7100231C
:100C50007B710023BB600023FB6000233B6100230A
:100C60007B610123BB610023FB613B4600221946E7
:100C700040F2CC10C2F2000003F04CFE0346002B01
:100C800001D000F0FCFA3B461022194640F2CC108D
:100C9000C2F2000003F03EFE0346002B01D000F03C
:100CA000EEFA3B460022194640F2CC10C2F2000098
:100CB00003F0ECFF3B461022194640F2CC10C2F282
:100CC000000003F0E3FF00BF3037BD4680BD80B5B4
:100CD0008AB000AF786007F1140300221A605A60EE
:100CE0009A60DA601A617B681A684FF40063C5F293
:100CF00000039A4236D14FF48053C4F20203DA6CF7
:100D00004FF48053C4F2020342F48032DA644FF4A9
:100D10008053C4F20203DB6C03F480333B613B6914
:100D20004FF48053C4F20203DA6C4FF48053C4F2E0
:100D3000020342F00102DA644FF48053C4F202036A
:100D4000DB6C03F00103FB60FB6830237B61032352
:100D5000BB610023FB6107F1140319464FF090407B
:100D600004F08BF900BF2837BD4680BD80B588B040
:100D700000AF07F10C0300221A605A609A60DA6033
:100D80001A614FF48053C4F20203DA6C4FF48053BB
:100D9000C4F2020342F00102DA644FF48053C4F259
:100DA0000203DB6C03F00103BB60BB684FF48053AC
:100DB000C4F20203DA6C4FF48053C4F2020342F02F
:100DC0000402DA644FF48053C4F20203DB6C03F0D4
:100DD00004037B607B684FF48053C4F20203DA6C37
:100DE0004FF48053C4F2020342F00202DA644FF47B
:100DF0008053C4F20203DB6C03F002033B603B68E8
:100E0000002240F2C1314FF48060C4F6000004F0CB
:100E1000DAFA00224FF400614FF40060C4F60000DB
:100E200004F0D1FA40F20123FB6001233B6100236F
:100E30007B610223BB6107F10C0319464FF480600C
:100E4000C4F6000004F019F94FF48073FB604FF40E
:100E500088133B6100237B6107F10C0319464FF4B3
:100E60000060C4F6000004F008F94FF40063FB6072
:100E700001233B6100237B610023BB6107F10C036D
:100E800019464FF40060C4F6000004F0F6F84FF481
:100E9000E073FB6001233B6100237B610023BB61A6
:100EA00007F10C0319464FF48060C4F6000004F00B
:100EB000E4F800220121172003F03CFC172003F086
:100EC00053FC00BF2037BD4680BD80B582B000AF67
:100ED00001F0D1FC00F088F9FFF748FF01F0F8F9C4
:100EE000FFF784FBFFF732FCFFF7CCFC00F0E4FBDC
:100EF00000F079FBFFF78AFE00F0A7FF01F07CF815
:100F000001F014F801F0E0F840F20073C2F20003BF
:100F10001B681A6840F20073C2F200031B6842F0BB
:100F200040021A6040F20073C2F200031B685A6864
:100F300040F20073C2F200031B6842F480525A6010
:100F40004FF400714FF48060C4F6000004F053FACF
:100F500040F28400C2F2000002F09CF940F2F0007E
:100F6000C2F2000002F096F940F25C10C2F20000FA
:100F700002F090F90021C4F27F0140F28400C2F235
:100F8000000003F060F90021C4F27F0140F2F0009C
:100F9000C2F2000003F057F90021C4F27F0140F2D1
:100FA0005C10C2F2000003F04EF9642001F0DEFC98
:100FB0004FF400714FF48060C4F6000004F01BFA97
:100FC00040F28400C2F2000002F064F940F2F00046
:100FD000C2F2000002F05EF940F25C10C2F20000C2
:100FE00002F058F9642001F0C1FC4FF400714FF495
:100FF0008060C4F6000004F0FEF9002140F2CC103D
:10100000C2F2000003F0ECFB102140F2CC10C2F25F
:10101000000003F0E5FB4FF400630022002140F2E2
:10102000CC10C2F2000003F048FC4FF480630022B1
:10103000102140F2CC10C2F2000003F03EFC64200C
:1010400001F094FC4FF400714FF48060C4F600008E
:1010500004F0D1F940F61800C2F2000006F059FC85
:10106000002000F053FA642001F080FC4FF400717E
:101070004FF48060C4F6000004F0BDF900F048F9B8
:10108000642001F073FC4FF400714FF48060C4F6EB
:10109000000004F0B0F940F2F953C2F200031B78EB
:1010A000002B0FD0002000F08AFD40F2E013C2F2C6
:1010B0000003DB8ADBB2194640F2E010C2F2000006
:1010C00000F075FA40F2FA53C2F200031B78002BCD
:1010D00020D040F25C10C2F2000002F0DBF840F2D7
:1010E0005C10C2F2000002F0D5F84FF47A7140F2C1
:1010F0005C10C2F2000002F0CAF940F25C10C2F2C9
:10110000000002F0E3FA0346FB80B7F90630184608
:1011100000F025FA40F2F853C2F200031B78002BCE
:10112000B9D04FF48063C4F600034FF480729A6123
:1011300000BF00BF00BF00BF00BF00BF00BF00BFB7
:1011400000BF00BF00BF00BF00BF00BF00BF00BFA7
:1011500000BF00BF00BF00BF00BF00BF00BF00BF97
:1011600000BF00BF00BF00BF00BF00BF00BF00BF87
:1011700000BF00BF00BF00BF00BF00BF00BF00BF77
:1011800000BF00BF00BF00BF00BF00BF00BF00BF67
:101190004FF48063C4F600030122C0F200229A617A
:1011A00001F05FFA4FF48063C4F600034FF08072E1
:1011B0009A6140F2E013C2F200034022DA8240F268
:1011C000E013C2F20003DB8ADBB2194640F2E01002
:1011D000C2F2000000F0EBF94FF48063C4F60003A4
:1011E0004FF481329A6156E780B594B000AF07F1B1
:1011F000180338220021184609F07FFC3B1D00220D
:101200001A605A609A60DA601A61002004F034F9BA
:101210000223BB614FF480737B624023BB620223D5
:101220007B630223BB630223FB6328233B6402230B
:101230007B640223BB640223FB6407F11803184696
:1012400004F014FA0346002B01D000F018F80F2325
:101250007B600323BB600023FB6000233B61002312
:101260007B613B1D0421184604F0FBFD0346002B67
:1012700001D000F004F800BF5037BD4680BD80B4F7
:1012800000AF72B600BF00BFFDE780B483B000AF0F
:101290000346FB7197F90730002B0EDBFB7903F057
:1012A0001F014FF46143CEF2000397F90720520962
:1012B000012000FA01F143F8221000BF0C37BD46AF
:1012C0005DF8047B704780B483B000AF0346FB71C8
:1012D00097F90730002B15DBFB7903F01F014FF462
:1012E0006143CEF2000397F907205209012000FA6A
:1012F00001F1203243F82210BFF34F8F00BFBFF33C
:101300006F8F00BF00BF0C37BD465DF8047B704790
:1013100080B500AFDC2240F2FC51C2F2000140F681
:10132000FC00C2F2000007F0FEF940F2FC63C2F2DA
:10133000000301221A7000BF80BD80B582B000AFEB
:101340003B4600221A601A71AA233B7005237B706A
:10135000CC23BB7040F2FC53C2F200035B7863F015
:101360007F03DBB2FB70BB233B7140F2FC53C2F244
:1013700000035B78662B2DD0662B48DC552B3FD0C5
:10138000552B44DC442B30D0442B40DC332B16D07F
:10139000332B3CDC112B02D0222B09D037E040F25A
:1013A000FC53C2F200039B78184600F0AFF830E01F
:1013B00040F2FE50C2F2000000F074F829E040F262
:1013C000FC53C2F200039A7840F2FA53C2F20003CF
:1013D0001A701EE040F2FC53C2F200039A7840F209
:1013E000F853C2F200031A7013E040F2FC53C2F249
:1013F00000039A7840F2F953C2F200031A7008E031
:1014000040F2FE50C2F2000001F055F801E0FF2367
:10141000BB7039466423052240F6FC00C2F200008E
:1014200007F0F3F800BF0837BD4680BD80B400AFB9
:1014300000BFBD465DF8047B704780B584B000AF47
:10144000786040F2FC53C2F200031B78AA2B0CD147
:1014500040F2FC53C2F2000393F8DB30BB2B02D105
:10146000FFF76BFF01E0FFF7E1FF0023FB600AE0FD
:1014700040F2FC53C2F20003FA68134400221A70CF
:10148000FB680133FB60FB68FF2BF1DDDC2240F2DF
:10149000FC51C2F20001786807F045F900BF10372F
:1014A000BD4680BD80B584B000AF78607B681B68A6
:1014B000FB60FB68002B12D04FF44063C4F20003C2
:1014C000FA68DA624FF44063C4F2000300225A6201
:1014D00040F66400C2F2000006F091FA12E04FF408
:1014E0004063C4F200034FF6FF72DA624FF44063C8
:1014F000C4F2000300225A6240F66400C2F2000007
:1015000006F0FBFA00BF1037BD4680BD80B582B043
:1015100000AF0346FB71FB79002B0FD001F01FF8E1
:1015200001F09FF81720FFF7B0FE40F2FB53C2F224
:10153000000301221A7001F004F80CE01720FFF7F5
:10154000C2FE40F2FB53C2F2000300221A7001F007
:1015500088F801F004F800BF0837BD4680BD80B5AB
:1015600084B000AF0346FB8007F1080300221A6035
:101570009A80AA233B7206237B72AD23BB72FB8841
:10158000DBB2FB72B7F906301B12DBB23B73BB2335
:101590007B7307F108016423062240F6FC00C2F2C7
:1015A000000007F032F800BF1037BD4680BD80B59F
:1015B00082B000AF78600B46FB707B6803F11801C6
:1015C00040F2E013C2F20003DB8A1B019AB24FF42F
:1015D0007A7340F6FC00C2F2000007F016F800BF74
:1015E0000837BD4680BD80B500AF40F20072C2F240
:1015F00000024FF44053C4F20103136040F2007341
:10160000C2F200034FF482725A6040F20073C2F2D9
:10161000000300229A6040F20073C2F200034FF40C
:10162000E062DA6040F20073C2F2000300221A6145
:1016300040F20073C2F2000301225A6140F20073CB
:10164000C2F200034FF400729A6140F20073C2F2DA
:1016500000031022DA6140F20073C2F2000380221C
:101660001A6240F20073C2F2000300225A6240F292
:101670000073C2F2000300229A6240F20073C2F2C9
:1016800000030722DA6240F20073C2F20003002274
:101690001A6340F20073C2F2000300225A6340F260
:1016A0000070C2F2000005F0A9F90346002B01D03A
:1016B000FFF7E5FD00BF80BD80B500AF40F264726A
:1016C000C2F200024FF47053C4F20003136040F200
:1016D0006473C2F200034FF482725A6040F2647382
:1016E000C2F2000300229A6040F26473C2F2000367
:1016F0004FF4E062DA6040F26473C2F20003002249
:101700001A6140F26473C2F2000301225A6140F28E
:101710006473C2F200034FF400729A6140F2647382
:10172000C2F200031022DA6140F26473C2F20003D5
:1017300000221A6240F26473C2F2000300225A626D
:1017400040F26473C2F2000300229A6240F26473B2
:10175000C2F200030722DA6240F26473C2F20003AD
:1017600000221A6340F26473C2F2000300225A633B
:1017700040F26470C2F2000005F040F90346002B0D
:1017800001D0FFF77CFD00BF80BD80B58CB000AFFD
:10179000786007F11C0300221A605A609A60DA60D0
:1017A0001A617B681A684FF44053C4F201039A42ED
:1017B0003DD14FF48053C4F202031A6E4FF48053AC
:1017C000C4F2020342F480521A664FF48053C4F20A
:1017D00002031B6E03F48053BB61BB694FF480535B
:1017E000C4F20203DA6C4FF48053C4F2020342F0F5
:1017F0000202DA644FF48053C4F20203DB6C03F09C
:1018000002037B617B693823FB6102233B62002377
:101810007B620323BB620523FB6207F11C031946AD
:101820004FF48060C4F6000003F027FC45E07B68BD
:101830001A684FF47053C4F200039A423DD14FF43A
:101840008053C4F202039A6D4FF48053C4F2020332
:1018500042F400429A654FF48053C4F202039B6D38
:1018600003F400433B613B694FF48053C4F202032D
:10187000DA6C4FF48053C4F2020342F00402DA64DB
:101880004FF48053C4F20203DB6C03F00403FB60EB
:10189000FB684FF4A053FB6102233B6200237B6291
:1018A0000023BB620623FB6207F11C0319464FF4B9
:1018B0000060C4F6000003F0E0FB00BF3037BD4617
:1018C00080BD80B582B000AF4FF48053C4F20203F4
:1018D0001A6E4FF48053C4F2020342F001021A66FA
:1018E0004FF48053C4F202031B6E03F001037B60CC
:1018F0007B684FF48053C4F202039A6D4FF4805317
:10190000C4F2020342F080529A654FF48053C4F24D
:1019100002039B6D03F080533B603B68102001F095
:1019200048F8002001F05BF801F06FF803F08BFE3F
:1019300000BF0837BD4680BD80B483B000AF03460A
:10194000FB7197F90730002B0EDBFB7903F01F01C9
:101950004FF46143CEF2000397F9072052090120AA
:1019600000FA01F143F8221000BF0C37BD465DF8C4
:10197000047B704780B483B000AF0346FB7197F9D6
:101980000730002B15DBFB7903F01F014FF4614397
:10199000CEF2000397F907205209012000FA01F165
:1019A000203243F82210BFF34F8F00BFBFF36F8F79
:1019B00000BF00BF0C37BD465DF8047B704780B4A4
:1019C00000AF00BFFDE780B400AF00BFFDE780B40B
:1019D00000AF00BFFDE780B400AF00BFFDE780B4FB
:1019E00000AF00BFFDE780B400AF00BFBD465DF8AB
:1019F000047B704780B400AF00BFBD465DF8047B38
:101A0000704780B400AF00BFBD465DF8047B7047EF
:101A100080B500AF00F087FF00BF80BD80B500AF8C
:101A200000BF00BF00BF00BF00BF00BF00BF00BFBE
:101A300000BF00BF00BF00BF00BF00BF00BF00BFAE
:101A400000BF00BF00BF00BF00BF00BF00BF00BF9E
:101A500000BF00BF00BF00BF00BF00BF00BF00BF8E
:101A600000BF00BF00BF00BF00BF00BF00BF00BF7E
:101A700000BF00BF00BF00BF00BF00BF00BF00BF6E
:101A80004FF48063C4F600030122C0F200229A6181
:101A90001720FFF76FFF00F0E4FD40F2E013C2F201
:101AA0000003DB8ADBB2194640F2E010C2F200000C
:101AB000FFF77DFD1720FFF73FFF4FF4807003F025
:101AC000B4FC4FF48063C4F600034FF481329A6192
:101AD00000BF80BD80B500AF40F2CC70C2F2000004
:101AE00006F03AF800BF80BD80B500AF40F6FC00BC
:101AF000C2F2000006F063FE00BF80BD80B500AFFB
:101B00004FF480714FF48060C4F6000003F073FC62
:101B100040F66400C2F2000006F01EF800BF80BD6F
:101B200080B500AF40F6B000C2F2000006F014F835
:101B300000BF80BD90B589B000AFF8607B600B46F8
:101B4000FB7213463B8107F1100300221A605A60B2
:101B50009A60DA6000233B7408F08CFE03465BB2A7
:101B600043F003035BB2DBB27B7408F083FE0346F1
:101B70005A42C3F30B03C2F30B0258BF53429BB24A
:101B8000BB8208F077FE03465A42C3F30B03C2F34D
:101B90000B0258BF53429BB2FB823B897B827B681E
:101BA000BB614FF0AA33FB61FB681C4607F11003D1
:101BB0000FCB84E80F00F8682437BD4690BDF0B520
:101BC00089B000AF0346FB75FB7D002B13D108F0F5
:101BD00051FE024642F28303C8F2082383FB02133C
:101BE00013445911D317C91A0B469B015B1AD11A1A
:101BF000CBB20133FB750023FB611EE040F2E01322
:101C0000C2F200039C8A4FF080435D6A40F2E01309
:101C1000C2F20003FA691201134403F118063846B0
:101C2000F97D2B462246FFF785FF34463B460FCB16
:101C300084E80F00FB690133FB61FB693F2BDDDDAD
:101C4000FB7D9AB240F2E013C2F20003DA8240F266
:101C5000E013C2F200039B8A01339AB240F2E01310
:101C6000C2F200039A8200BF2437BD46F0BD80B4A3
:101C700000AF01231846BD465DF8047B704780B570
:101C800082B000AF7860396008F086FF0346162204
:101C90001A604FF0FF3318460837BD4680BD80B547
:101CA00082B000AF78604FF0FF317868FFF7E7FF50
:101CB00000BFFDE780B586B000AFF860B9607A601C
:101CC00000237B610AE0AFF300800146BB685A1C29
:101CD000BA60CAB21A707B6901337B617A697B682A
:101CE0009A42F0DB7B6818461837BD4680BD80B548
:101CF00086B000AFF860B9607A6000237B6109E0CC
:101D0000BB685A1CBA601B781846AFF300807B6929
:101D100001337B617A697B689A42F1DB7B68184604
:101D20001837BD4680BD80B483B000AF78604FF0F7
:101D3000FF3318460C37BD465DF8047B704780B40E
:101D400083B000AF786039603B684FF400525A604E
:101D5000002318460C37BD465DF8047B704780B4FD
:101D600083B000AF7860012318460C37BD465DF89C
:101D7000047B704780B485B000AFF860B9607A60CA
:101D8000002318461437BD465DF8047B704780B5C4
:101D900086B000AF786040F20002C2F2020240F268
:101DA0000043C0F20003D31A7B617B693B6140F2C0
:101DB000C873C2F200031B68002B08D140F2C8733D
:101DC000C2F2000340F6E022C2F200021A6040F2C2
:101DD000C873C2F200031A687B6813443A699A42D6
:101DE00007D208F0D9FE03460C221A604FF0FF33E9
:101DF00012E040F2C873C2F200031B68FB6040F2BD
:101E0000C873C2F200031A687B681A4440F2C873B0
:101E1000C2F200031A60FB6818461837BD4680BD41
:101E200080B400AF4FF46D43CEF20003D3F88820A6
:101E30004FF46D43CEF2000342F47002C3F88820E1
:101E400000BFBD465DF8047B704780B588B000AF29
:101E500007F1100300221A605A609A60DA603B1D95
:101E600000221A605A609A6040F2CC72C2F20002FC
:101E70004FF43053C4F20103136040F2CC73C2F24A
:101E8000000340F2E7325A6040F2CC73C2F2000322
:101E900000229A6040F2CC73C2F200034FF4C86291
:101EA000DA6040F2CC73C2F2000300221A6140F201
:101EB000CC73C2F2000300225A6140F2CC73C2F22A
:101EC000000300229A6140F2CC70C2F2000005F0DB
:101ED000C9FC0346002B01D0FFF7D1F94FF4805322
:101EE0003B6107F11003194640F2CC70C2F20000CA
:101EF00005F081FF0346002B01D0FFF7C0F9002356
:101F00007B600023BB600023FB603B1D194640F251
:101F1000CC70C2F2000006F03DFA0346002B01D05F
:101F2000FFF7ADF900BF2037BD4680BD80B588B052
:101F300000AF07F1100300221A605A609A60DA605D
:101F40003B1D00221A605A609A6040F61803C2F2E4
:101F500000034FF080421A6040F61803C2F20003FB
:101F600003225A6040F61803C2F2000300229A606E
:101F700040F61803C2F200034FF0FF32DA6040F679
:101F80001803C2F2000300221A6140F61803C2F2DD
:101F9000000300229A6140F61800C2F2000005F02A
:101FA00061FC0346002B01D0FFF769F94FF4805321
:101FB0003B6107F11003194640F61800C2F2000019
:101FC00005F019FF0346002B01D0FFF758F9002355
:101FD0007B600023FB603B1D194640F61800C2F2EF
:101FE000000006F0D7F90346002B01D0FFF747F9B0
:101FF00000BF2037BD4680BD80B588B000AF07F177
:10200000100300221A605A609A60DA603B1D0022B9
:102010001A605A609A6040F66402C2F200024FF4FD
:102020004063C4F20003136040F66403C2F200038D
:1020300000225A6040F66403C2F2000300229A6054
:1020400040F66403C2F200034FF0FF32DA6040F65C
:102050006403C2F2000300221A6140F66403C2F274
:10206000000300229A6140F66400C2F2000005F00D
:10207000F9FB0346002B01D0FFF701F94FF4805321
:102080003B6107F11003194640F66400C2F20000FC
:1020900005F0B1FE0346002B01D0FFF7F0F8002356
:1020A0007B600023FB603B1D194640F66400C2F2D2
:1020B000000006F06FF90346002B01D0FFF7DFF8B0
:1020C00000BF2037BD4680BD80B588B000AF07F1A6
:1020D000100300221A605A609A60DA603B1D0022E9
:1020E0001A605A609A6040F6B002C2F200024FF4E1
:1020F000A043C4F20103136040F6B003C2F2000330
:1021000019225A6040F6B003C2F2000300229A601E
:1021100040F6B003C2F200034FF6FF72DA6040F6F9
:10212000B003C2F2000300221A6140F6B003C2F20B
:10213000000300225A6140F6B003C2F200030022FD
:102140009A6140F6B000C2F2000005F08BFB034636
:10215000002B01D0FFF793F84FF480533B6107F158
:102160001003194640F6B000C2F2000005F043FE2D
:102170000346002B01D0FFF782F800237B60002389
:10218000BB600023FB603B1D194640F6B000C2F265
:10219000000006F0FFF80346002B01D0FFF76FF8B0
:1021A00000BF2037BD4680BD80B586B000AF7860E7
:1021B0007B681A684FF43053C4F201039A421DD170
:1021C0004FF48053C4F202031A6E4FF48053C4F2EA
:1021D000020342F400621A664FF48053C4F2020311
:1021E0001B6E03F400637B617B69002205211920CB
:1021F00002F0A0FA192002F0B7FA65E07B681B68CC
:10220000B3F1804F15D14FF48053C4F202039A6D9D
:102210004FF48053C4F2020342F001029A654FF476
:102220008053C4F202039B6D03F001033B613B69E1
:102230004AE07B681A684FF44063C4F200039A4294
:102240001DD14FF48053C4F202039A6D4FF48053B2
:10225000C4F2020342F008029A654FF48053C4F2BC
:1022600002039B6D03F00803FB60FB680022022160
:10227000322002F05FFA322002F076FA24E07B6826
:102280001A684FF4A043C4F201039A421CD14FF4E0
:102290008053C4F202031A6E4FF48053C4F2020357
:1022A00042F480121A664FF48053C4F202031B6E8C
:1022B00003F48013BB60BB68002203214E2002F0B0
:1022C00039FA4E2002F050FA00BF1837BD4680BDE3
:1022D00080B500AF40F6FC02C2F200024FF460533A
:1022E000C4F20103136040F6FC02C2F200024FF494
:1022F0001063C0F23D03536040F6FC03C2F20003DA
:1023000000229A6040F6FC03C2F200030022DA6069
:1023100040F6FC03C2F2000300221A6140F6FC03FF
:10232000C2F200030C225A6140F6FC03C2F2000321
:1023300000229A6140F6FC03C2F200030022DA6137
:1023400040F6FC03C2F2000300221A6240F6FC03CE
:10235000C2F2000300225A6240F6FC03C2F20003FC
:1023600010229A6240F6FC03C2F200034FF480523E
:10237000DA6340F6FC00C2F2000006F0F6F803460D
:10238000002B01D0FEF77BFF002140F6FC00C2F2DB
:10239000000008F09DF90346002B01D0FEF76FFF07
:1023A000002140F6FC00C2F2000008F0CFF903461D
:1023B000002B01D0FEF763FF40F6FC00C2F20000E4
:1023C00008F04DF90346002B01D0FEF758FF00BF7F
:1023D00080BD80B59EB000AF786007F16403002235
:1023E0001A605A609A60DA601A6107F11003542289
:1023F0000021184608F081FB7B681A684FF460538F
:10240000C4F201039A4252D101233B6101237B6153
:1024100007F11003184603F0D3FF0346002B01D049
:10242000FEF72DFF4FF48053C4F202031A6E4FF4EF
:102430008053C4F2020342F480421A664FF4805380
:10244000C4F202031B6E03F48043FB60FB684FF48D
:102450008053C4F20203DA6C4FF48053C4F20203D7
:1024600042F00402DA644FF48053C4F20203DB6CDE
:1024700003F00403BB60BB6830237B660223BB66AA
:102480000023FB6602233B6707237B6707F1640396
:1024900019464FF40060C4F6000002F0EEFD002281
:1024A0000021252002F046F9252002F05DF900BF49
:1024B0007837BD4680BD80B584B000AF786000221B
:1024C0004FF400714FF48060C4F6000002F07BFF0F
:1024D0000023FB6025E000224FF400614FF4006010
:1024E000C4F6000002F06FFFFA6813465B00134465
:1024F0009B001A467B6899184FF4C8730C2240F26F
:102500006470C2F2000004F024FB01224FF4006169
:102510004FF40060C4F6000002F055FFFB68013381
:10252000FB60FB68112BD6DD01224FF400714FF4E4
:102530008060C4F6000002F046FF00BF1037BD46C1
:1025400080BD80B400AF4FF48063C4F600034FF445
:1025500081329A6100BFBD465DF8047B704780B44C
:1025600000AF4FF48063C4F600030122C0F20022E2
:102570009A6100BFBD465DF8047B704790B589B095
:1025800000AF786007F1100300221A605A609A6069
:10259000DA600023FB7307F10F014FF0FF330122D4
:1025A00040F20070C2F2000004F049FC4FF0A0437A
:1025B0001B6C9BB2BB824FF48073C5F200031B6C93
:1025C0009BB2FB824FF0A0439B684FF0A04243F0C8
:1025D000040393604FF48073C5F200039A684FF4CC
:1025E0008073C5F2000342F004029A6000BF4FF00E
:1025F000A0431B6803F00403002BF8D000BF4FF486
:102600008073C5F200031B6803F00403002BF6D0AF
:1026100070233B74FB7B7B744023C5F200031B8853
:102620009BB2BB824FF4A073C5F200031B889BB220
:10263000FB8240F2E013C2F200039B8A7B824FF0E0
:1026400080435B6ABB614FF0AA33FB617B681C4629
:1026500007F110030FCB84E80F0078682437BD46DC
:1026600090BD90B587B000AF0023FB754FF4806339
:10267000C4F600035A694FF48063C4F6000342F0C5
:1026800080025A614FF48063C4F600035A694FF424
:102690008063C4F6000342F040025A6100233B61AC
:1026A0005CE04FF40063C4F600031B6903F480731D
:1026B000002B29D040F2E013C2F200033A69120164
:1026C000134403F118043B461846FFF757FF3B46F7
:1026D0000FCB84E80F004FF48063C4F600035A69FF
:1026E0004FF48063C4F6000322F040025A614FF4B5
:1026F0008063C4F600035A694FF48063C4F6000394
:1027000022F080025A611AE04FF48063C4F600039D
:102710005A694FF48063C4F6000322F040025A6104
:102720004FF48063C4F600035A694FF48063C4F623
:10273000000322F080025A613B69FB7511E04FF4FF
:102740008063C4F600035A694FF48063C4F6000343
:1027500042F040025A613B6901333B613B693F2BC8
:102760009FDD4FF48063C4F600035A694FF4806321
:10277000C4F6000342F040025A614FF48063C4F68D
:1027800000035A694FF48063C4F6000322F040024C
:102790005A614FF48063C4F600035A694FF48063B2
:1027A000C4F6000342F040025A614FF48063C4F65D
:1027B00000035A694FF48063C4F6000322F040021C
:1027C0005A614FF48063C4F600035A694FF4806382
:1027D000C4F6000342F040025A614FF48063C4F62D
:1027E00000035A694FF48063C4F6000322F04002EC
:1027F0005A61FB7D9AB240F2E013C2F20003DA8222
:1028000040F2E013C2F200039B8A01339AB240F215
:10281000E013C2F200039A82FB7D18461C37BD46C6
:1028200090BD00000D488546FFF7FAFA0C480D49A7
:102830000D4A002302E0D458C4500433C4188C421B
:10284000F9D30A4A0A4C002301E013600432A24281
:10285000FBD308F0A7F9FEF738FBFEE700000220E3
:10286000000000206800002074B900086800002003
:10287000E00A0020FEE780B582B000AF0023FB71C4
:10288000032001F04CFF0F2000F00DF80346002B51
:1028900002D00123FB7101E0FFF713F8FB79184622
:1028A0000837BD4680BD80B584B000AF7860002396
:1028B000FB7340F20803C2F200031B68002B2BD00D
:1028C00040F20003C2F200031A6840F20803C2F2A9
:1028D00000031B684FF47A71B1FBF3F3B2FBF3F31F
:1028E000184601F04FFF0346002B12D17B680F2BD7
:1028F0000CD8002279684FF0FF3001F01BFF40F246
:102900000403C2F200037A681A6007E00123FB7334
:1029100004E00123FB7301E00123FB73FB7B1846FA
:102920001037BD4680BD80B400AF40F69013C2F2B0
:1029300000031A6840F20803C2F200031B681A443D
:1029400040F69013C2F200031A6000BFBD465DF866
:10295000047B704780B400AF40F69013C2F20003CE
:102960001B681846BD465DF8047B704780B584B08F
:1029700000AF7860FFF7EEFFB8607B68FB60FB6834
:10298000B3F1FF3F07D040F20803C2F200031B6817
:10299000FA681344FB6000BFFFF7DCFF0246BB6828
:1029A000D31AFA689A42F7D800BF00BF1037BD4665
:1029B00080BD80B483B000AF78603023C4F20103DF
:1029C0001B6823F030013023C4F201037A680A4304
:1029D0001A6000BF0C37BD465DF8047B704780B4B9
:1029E00083B000AF78603023C4F201031B6823F08A
:1029F00002013023C4F201037A680A431A6000BF5F
:102A00000C37BD465DF8047B704780B582B000AFDF
:102A10003023C4F201031A683023C4F2010342F0E8
:102A200001021A60FFF796FF786008E0FFF792FF57
:102A300002467B68D31A0A2B01D9032308E030230E
:102A4000C4F201031B6803F00803002BEED000233F
:102A500018460837BD4680BD80B483B000AF7860AB
:102A600039607B689B6823F47C123B681A437B685F
:102A70009A6000BF0C37BD465DF8047B704780B498
:102A800083B000AF786039607B689B6823F0E072A8
:102A90003B681A437B689A6000BF0C37BD465DF8FF
:102AA000047B704780B483B000AF78607B689B681C
:102AB00003F0E07318460C37BD465DF8047B7047A1
:102AC00080B487B000AFF860B9607A603B60FB68A3
:102AD00060331A46BB689B0013447B617B691A68AC
:102AE0004FF47043C0F2FF3313407A6802F0F841AC
:102AF0003A680A43134343F000427B691A6000BFFF
:102B00001C37BD465DF8047B704780B485B000AFCC
:102B1000786039607B6860331A463B689B001344D9
:102B2000FB60FB681B6803F0F84318461437BD468A
:102B30005DF8047B704780B487B000AFF860B9607F
:102B40007A60FB6860331A46BB689B0013447B6164
:102B50007B691B6823F000427B681A437B691A601B
:102B600000BF1C37BD465DF8047B704780B487B05A
:102B700000AFF860B9607A60FB6860331A46BB68E2
:102B80009B0013447B617B691B6823F080727B6828
:102B90001A437B691A6000BF1C37BD465DF8047B91
:102BA000704780B487B000AFF860B9607A60FB68A6
:102BB00060331A46BB689B0013447B617B691B68CA
:102BC00023F000727B681A437B691A6000BF1C37D0
:102BD000BD465DF8047B704780B483B000AF786079
:102BE00039607B685B6923F000423B681A437B686D
:102BF0005A6100BF0C37BD465DF8047B704780B456
:102C000083B000AF78607B68DB6803F44063002B1F
:102C100001D1012300E0002318460C37BD465DF8C2
:102C2000047B704780B487B000AFF860B9607A6009
:102C3000FB6830331A46BB681B0A9B0003F00C0389
:102C400013447B617B691A68BB6803F01F031F2173
:102C500001FA03F3DB431A407B689B0E03F01F016C
:102C6000BB6803F01F0301FA03F31A437B691A6080
:102C700000BF1C37BD465DF8047B704780B487B049
:102C800000AFF860B9607A60FB6814331A46BB681D
:102C90005B0E9B0003F0040313447B617B691A689D
:102CA000BB681B0D03F01F03072101FA03F3DB438D
:102CB0001A40BB681B0D03F01F03796801FA03F388
:102CC0001A437B691A6000BF1C37BD465DF8047B60
:102CD000704780B485B000AFF860B9607A60FB6877
:102CE000D3F8B020BB68C3F31203DB431A407B6800
:102CF00003F018014FF6FF73C0F2070323FA01F146
:102D0000BB680B40C3F312031A43FB68C3F8B0203F
:102D100000BF1437BD465DF8047B704780B483B0B4
:102D200000AF78607B689B6803F01F0318460C3780
:102D3000BD465DF8047B704780B483B000AF786017
:102D40007B689B6803F4604318460C37BD465DF80A
:102D5000047B704780B483B000AF78607B689B6869
:102D600023F0204323F03F037A68936000BF0C37C1
:102D7000BD465DF8047B704780B483B000AF7860D7
:102D80007B689B6803F00053B3F1005F01D101231E
:102D900000E0002318460C37BD465DF8047B704701
:102DA00080B483B000AF78607B689B6823F01043E9
:102DB00023F03F0343F080527B689A6000BF0C37DA
:102DC000BD465DF8047B704780B483B000AF786087
:102DD0007B689B6803F08053B3F1805F01D10123CE
:102DE00000E0002318460C37BD465DF8047B7047B1
:102DF00080B483B000AF78607B689B6823F00043A9
:102E000023F03F0343F001027B689A6000BF0C3758
:102E1000BD465DF8047B704780B483B000AF786036
:102E20007B689B6823F0004323F03F0343F00202DA
:102E30007B689A6000BF0C37BD465DF8047B704725
:102E400080B483B000AF78607B689B6803F00103B7
:102E5000012B01D1012300E0002318460C37BD46A9
:102E60005DF8047B704780B483B000AF78607B6806
:102E70009B6803F00203022B01D1012300E0002331
:102E800018460C37BD465DF8047B704780B483B0AC
:102E900000AF78607B689B6823F0004323F03F031A
:102EA00043F004027B689A6000BF0C37BD465DF8B2
:102EB000047B704780B483B000AF78607B689B6808
:102EC00003F00403042B01D1012300E00023184682
:102ED0000C37BD465DF8047B704780B483B000AF0B
:102EE00078607B689B6803F00803082B01D10123FD
:102EF00000E0002318460C37BD465DF8047B7047A0
:102F000090B589B000AF78600023FB770023FB60A9
:102F10007B68002B01D10123B8E17B685B69002B42
:102F20007B68DB6D002B09D17868FDF747FD7B6876
:102F300000221A667B68002283F858207B681B6891
:102F40001846FFF719FF0346002B04D07B681B6867
:102F50001846FFF7FFFE7B681B681846FFF734FF33
:102F60000346002B1BD17B681B681846FFF718FF30
:102F700040F20003C2F200031B689A0942F6635351
:102F8000C0F23E53A3FB02239B0901335B00FB60AD
:102F900002E0FB68013BFB60FB68002BF9D17B681A
:102FA0001B681846FFF710FF0346002B0DD17B6806
:102FB000DB6D43F010027B68DA657B681B6E43F0C3
:102FC00001027B681A660123FB777B681B68184641
:102FD000FFF770FF78617B68DB6D03F01003002B57
:102FE00040F04B817B69002B40F047817B68DB6DB3
:102FF00023F4817343F002027B68DA657B681B6807
:103000001846FFF71DFF0346002B59D17B681B684C
:10301000B3F1A04F07D07B681A684FF48073C5F2F4
:1030200000039A4212D14FF0A040FFF709FF044677
:103030004FF48070C5F20000FFF702FF0346234300
:10304000002B0CBF01230023DBB21BE04FF4806098
:10305000C5F20000FFF7F4FE04464FF4A060C5F28D
:103060000000FFF7EDFE03461C434FF4C060C5F2BD
:103070000000FFF7E5FE03462343002B0CBF0123AE
:103080000023DBB2002B1BD07B681B68B3F1A04F81
:1030900007D07B681A684FF48073C5F200039A4228
:1030A00004D14FF44073C5F2000303E04FF4E06332
:1030B000C5F200037A68526811461846FFF7CCFC47
:1030C0007B685B7F5A037B68DB6B1A437B68DB683A
:1030D0001A437B689B681A437B6893F824301B046F
:1030E0001343BB617B6893F82430012B06D17B68C6
:1030F0009B6A013B5B04BA691343BB617B68DB6A73
:10310000002B09D07B68DB6A03F478727B681B6B49
:103110001343BA691343BB617B681B68DA6844F2E6
:103120000703CFF6F07313407A681268B9690B434E
:10313000D3607B681B681B6923F040617B685A6B16
:103140007B681B680A431A617B681B681846FFF797
:10315000C4FE38617B69002B6DD13B69002B6AD1BD
:103160007B681B7F9A037B6893F838305B001343BE
:10317000BB617B681B68DB6823F4804323F0020398
:103180007A681268B9690B43D3607B681B69002BAE
:1031900017D07B681B681A697B681B6842F4803211
:1031A0001A617B681B68D3F8C03023F47F5323F087
:1031B0003F037A6811697A6812680B43C2F8C0301D
:1031C00013E07B681B681A697B681B6822F48032F5
:1031D0001A617B681B68D3F8C0307A68126823F4E0
:1031E0007F5323F03F03C2F8C0307B6893F8403030
:1031F000012B18D17B681B681B6923F4FF6323F044
:1032000004037A68516C7A68926C11437A68D26CC4
:1032100011437A68126D0A431A437B681B6842F0B7
:1032200001021A6107E07B681B681A697B681B68EA
:1032300022F001021A617B685B69012B0CD17B686B
:103240001B681B6B23F00F017B681B6A5A1E7B688F
:103250001B680A431A6307E07B681B681A6B7B686C
:103260001B6822F00F021A637B68DB6D23F00303F7
:1032700043F001027B68DA6507E07B68DB6D43F0B1
:1032800010027B68DA650123FB77FB7F1846243741
:10329000BD4690BD80B586B000AF78607B681B6886
:1032A000B3F1A04F07D07B681A684FF48073C5F262
:1032B00000039A4204D14FF44073C5F2000303E0C7
:1032C0004FF4E063C5F200031846FFF727FD3861AD
:1032D0007B681B681846FFF7EDFD0346002B40F0A6
:1032E000CF807B6893F85830012B01D10223CAE0CC
:1032F0007B68012283F85820786800F056FE034668
:10330000FB75FB7D002B40F0B6807B68DB6D23F402
:10331000706323F0010343F480727B68DA657B6895
:103320001A684FF48073C5F200039A420FD07B688D
:103330001A684FF4A063C5F200039A4202D07B687A
:103340001B6806E04FF48063C5F2000301E04FF014
:10335000A0437A681268934202D03B69002B05D1E2
:103360007B68DB6D23F480127B68DA657B68DB6D3C
:1033700003F48053B3F5805F06D17B681B6E23F0A6
:1033800006027B681A6602E07B6800221A667B6888
:103390001B681C221A607B68002283F858207B6817
:1033A0001A684FF48073C5F200039A420FD07B680D
:1033B0001A684FF4A063C5F200039A4202D07B68FA
:1033C0001B6806E04FF48063C5F2000301E04FF094
:1033D000A0437A681268934208D03B69002B05D05D
:1033E0003B69052B02D03B69092B14D17B681B6814
:1033F000DB6803F00073002B07D07B68DB6D23F4E0
:10340000405343F480527B68DA657B681B6818463A
:10341000FFF73CFD36E07B68DB6D43F480127B6890
:10342000DA657B681A684FF48073C5F200039A422C
:103430000FD07B681A684FF4A063C5F200039A426C
:1034400002D07B681B6806E04FF48063C5F200037E
:1034500001E04FF0A043FB60FB68DB6803F0007302
:10346000002B0FD07B68DB6D23F4405343F4805274
:103470007B68DA6506E07B68002283F8582001E06B
:103480000223FB75FB7D18461837BD4680BD80B50D
:1034900088B000AF786039607B681B68B3F1A04FDB
:1034A00007D07B681A684FF48073C5F200039A4214
:1034B00004D14FF44073C5F2000303E04FF4E0631E
:1034C000C5F200031846FFF729FC78617B689B6909
:1034D000082B02D10823FB6140E07B69002B05D05B
:1034E0007B69052B02D07B69092B11D17B681B6896
:1034F000DB6803F00103002B07D07B68DB6D43F032
:1035000020027B68DA650123DCE00423FB6125E00F
:103510007B681B68B3F1A04F07D07B681A684FF433
:103520008073C5F200039A4204D14FF44073C5F290
:10353000000303E04FF4E063C5F200031846FFF711
:10354000FBFB0346002B07D07B68DB6D43F02002BA
:103550007B68DA650123B5E00423FB61FFF7FAF924
:10356000386121E03B68B3F1FF3F1DD0FFF7F2F96E
:1035700002463B69D31A3A689A4202D33B68002B51
:1035800012D17B681B681A68FB691340002B0BD1B2
:103590007B68DB6D43F004027B68DA657B680022A0
:1035A00083F8582003238DE07B681B681A68FB6949
:1035B0001340002BD6D07B68DB6D43F400727B6830
:1035C000DA657B681B681846FFF719FB0346002B7A
:1035D0001CD07B685B7F002B18D17B681B681B6845
:1035E00003F00803082B11D17B68DB6D23F4807294
:1035F0007B68DA657B68DB6D03F48053002B05D1B3
:103600007B68DB6D43F001027B68DA657B681A68D2
:103610004FF48073C5F200039A420FD07B681A689A
:103620004FF4A063C5F200039A4202D07B681B6886
:1036300006E04FF48063C5F2000301E04FF0A043C1
:103640007A681268934208D07B69002B05D07B69A9
:10365000052B02D07B69092B04D17B681B68DB68D2
:10366000BB611DE07B681A684FF48073C5F20003EC
:103670009A420FD07B681A684FF4A063C5F200032A
:103680009A4202D07B681B6806E04FF48063C5F263
:10369000000301E04FF0A043FB60FB68DB68BB6107
:1036A000FB69082B04D17B681B6808221A6008E0BC
:1036B000BB6903F48043002B03D17B681B680C2299
:1036C0001A60002318462037BD4680BD80B483B001
:1036D00000AF78607B681B681B6C18460C37BD46D2
:1036E0005DF8047B704780B5B6B000AF7860396094
:1036F000002387F8D7300023FB607B6893F85830AD
:10370000012B02D1022300F04CBC7B68012283F81C
:1037100058207B681B681846FFF7CCFB0346002B3C
:1037200040F02C847B6818683B6859683B681B68CC
:103730001A46FFF777FA7B681B681846FFF7BAFB53
:10374000C7F8D0007B681B681846FFF7C6FBC7F8B0
:10375000CC00D7F8D030002B40F0D981D7F8CC304E
:10376000002B40F0D4813B689B68B3F1004F0FD130
:103770007B6818683B681B6800221946FFF77EFAD1
:103780007B681B684FF000411846FFF725FA0EE0F2
:103790007B6818683B6819683B689B681A46FFF7A6
:1037A0006DFA7B681B6800211846FFF715FA3B6825
:1037B0005A697B681B68DB68DB0803F003035B0066
:1037C00002FA03F3C7F8C8303B681B69042B22D008
:1037D0007B6818683B6819693B681A68D7F8C83075
:1037E000FFF76EF97B6818683B6819693B689B694D
:1037F0001A46FFF7BBF97B6818683B6819693B6894
:103800001B7F012B02D14FF0007300E000231A460A
:10381000FFF7C7F97BE17B681B6800211846FFF7BB
:1038200074F90346C3F31203002B0AD17B681B68AB
:1038300000211846FFF769F903469B0E03F01F02AB
:103840001EE07B681B6800211846FFF75EF90346FF
:10385000C7F8BC30D7F8BC3093FAA3F3C7F8C03030
:10386000D7F8C030C7F8B830D7F8B830002B01D13E
:10387000202304E0D7F8B830B3FA83F3DBB21A465A
:103880003B681B68C3F31203002B05D13B681B6820
:103890009B0E03F01F0318E03B681B68C7F8B030AD
:1038A000D7F8B03093FAA3F3C7F8AC30D7F8AC3000
:1038B000C7F8B430D7F8B430002B01D1202304E08E
:1038C000D7F8B430B3FA83F3DBB29A4206D17B68FF
:1038D0001B68002200211846FFF72DF97B681B6842
:1038E00001211846FFF711F90346C3F31203002B19
:1038F0000AD17B681B6801211846FFF706F90346C9
:103900009B0E03F01F021EE07B681B680121184616
:10391000FFF7FBF80346C7F8A430D7F8A43093FAB2
:10392000A3F3C7F8A030D7F8A030C7F8A830D7F86D
:10393000A830002B01D1202304E0D7F8A830B3FA37
:1039400083F3DBB21A463B681B68C3F31203002BF8
:1039500005D13B681B689B0E03F01F0318E03B6812
:103960001B68C7F89830D7F8983093FAA3F3C7F8D4
:103970009430D7F89430C7F89C30D7F89C30002B9F
:1039800001D1202304E0D7F89C30B3FA83F3DBB2F3
:103990009A4206D17B681B68002201211846FFF776
:1039A000CAF87B681B6802211846FFF7AEF8034689
:1039B000C3F31203002B0AD17B681B68022118464F
:1039C000FFF7A3F803469B0E03F01F021EE07B687F
:1039D0001B6802211846FFF798F80346C7F88C3099
:1039E000D7F88C3093FAA3F3C7F88830D7F888302B
:1039F000C7F89030D7F89030002B01D1202304E095
:103A0000D7F89030B3FA83F3DBB21A463B681B68F1
:103A1000C3F31203002B05D13B681B689B0E03F018
:103A20001F0316E03B681B68C7F88030D7F880306A
:103A300093FAA3F3FB67FB6FC7F88430D7F88430A1
:103A4000002B01D1202304E0D7F88430B3FA83F3AC
:103A5000DBB29A4206D17B681B680022022118461D
:103A6000FFF769F87B681B6803211846FFF74DF8DC
:103A70000346C3F31203002B0AD17B681B680321A2
:103A80001846FFF742F803469B0E03F01F0217E0AB
:103A90007B681B6803211846FFF737F803467B67EE
:103AA0007B6F93FAA3F33B673B6FBB67BB6F002B46
:103AB00001D1202303E0BB6FB3FA83F3DBB21A46D4
:103AC0003B681B68C3F31203002B05D13B681B68DE
:103AD0009B0E03F01F0311E03B681B68BB66BB6EC7
:103AE00093FAA3F37B667B6EFB66FB6E002B01D122
:103AF000202303E0FB6EB3FA83F3DBB29A4206D1D4
:103B00007B681B68002203211846FFF714F87B68C6
:103B10001B681846FFF794F90346002B40F03F81DD
:103B20007B6818683B6819683B68DB681A46FFF7D2
:103B3000D0F83B68DA680023C4F27F039A4240F071
:103B40002E817B6818683B681B68C3F31203002B47
:103B50000BD13B681B689B0E013303F01F03092B3D
:103B600094BF01230023DBB219E03B681B68FB65AF
:103B7000FB6D93FAA3F3BB65BB6D3B663B6E002BFD
:103B800001D1202303E03B6EB3FA83F3DBB20133B0
:103B900003F01F03092B94BF01230023DBB2002B8A
:103BA00079D03B681B68C3F31203002B07D13B6835
:103BB0001B689B0E01339B0603F0F84215E03B683F
:103BC0001B683B653B6D93FAA3F3FB64FB6C7B6561
:103BD0007B6D002B01D1202303E07B6DB3FA83F3CF
:103BE000DBB201339B0603F0F8423B681B68C3F36A
:103BF0001203002B09D13B681B689B0E013303F0B5
:103C00001F03012101FA03F317E03B681B687B6483
:103C10007B6C93FAA3F33B643B6CBB64BB6C002BE3
:103C200001D1202303E0BB6CB3FA83F3DBB2013391
:103C300003F01F03012101FA03F342EA03013B6889
:103C40001B68C3F31203002B0AD13B681B689B0E51
:103C5000013303F01F0213465B0013441B0518E0F9
:103C60003B681B68BB63BB6B93FAA3F37B637B6B03
:103C7000FB63FB6B002B01D1202303E0FB6BB3FA4A
:103C800083F3DBB2013303F01F0213465B001344DE
:103C90001B050B437EE03B681B68C3F31203002B3C
:103CA00007D13B681B689B0E01339B0603F0F8426B
:103CB00015E03B681B68FB62FB6A93FAA3F3BB62E7
:103CC000BB6A3B633B6B002B01D1202303E03B6BC2
:103CD000B3FA83F3DBB201339B0603F0F8423B688F
:103CE0001B68C3F31203002B09D13B681B689B0EB2
:103CF000013303F01F03012101FA03F317E03B68CE
:103D00001B683B623B6A93FAA3F3FB61FB697B622E
:103D10007B6A002B01D1202303E07B6AB3FA83F393
:103D2000DBB2013303F01F03012101FA03F342EA7E
:103D300003013B681B68C3F31203002B0DD13B68E2
:103D40001B689B0E013303F01F0213465B001344F4
:103D50001E3B1B0543F000731BE03B681B687B6147
:103D60007B6993FAA3F33B613B69BB61BB69002BA1
:103D700001D1202303E0BB69B3FA83F3DBB2013343
:103D800003F01F0213465B0013441E3B1B0543F068
:103D900000730B433A6892681946FEF76FFF3B6861
:103DA0001A680023C8F208031340002B00F0F380C8
:103DB0007B681B68B3F1A04F07D07B681A684FF48B
:103DC0008073C5F200039A4204D14FF44073C5F2E8
:103DD000000303E04FF4E063C5F200031846FEF76A
:103DE00061FEC7F8C4003B681A680023CCF2213397
:103DF0009A4206D03B681A681023C9F2C0039A425F
:103E00004CD1D7F8C43003F40003002B46D17B68B3
:103E10001B68B3F1A04F08D07B681A684FF4C063E9
:103E2000C5F200039A4240F0B3807B681B68B3F18F
:103E3000A04F07D07B681A684FF48073C5F2000367
:103E40009A4204D14FF44073C5F2000303E04FF4EB
:103E5000E063C5F20003D7F8C42042F40002114623
:103E60001846FEF70CFE40F20003C2F200031B6886
:103E70009A0942F66353C0F23E53A3FB02239B0907
:103E80005A1C13465B0013449B00FB6002E0FB6876
:103E9000013BFB60FB68002BF9D179E03B681A68B5
:103EA0000023CCF252739A4234D1D7F8C43003F0D5
:103EB0008073002B2ED17B681A684FF48073C5F293
:103EC00000039A4207D17B681A684FF4A063C5F2D9
:103ED00000039A425ED07B681B68B3F1A04F07D005
:103EE0007B681A684FF48073C5F200039A4204D1CC
:103EF0004FF44073C5F2000303E04FF4E063C5F2F2
:103F00000003D7F8C42042F0807211461846FEF72D
:103F1000B6FD3FE03B681A680023CCF684339A4232
:103F200039D1D7F8C43003F48003002B33D17B6838
:103F30001A684FF48073C5F200039A422BD07B6855
:103F40001B68B3F1A04F07D07B681A684FF48073E9
:103F5000C5F200039A4204D14FF44073C5F2000346
:103F600003E04FF4E063C5F20003D7F8C42042F445
:103F7000800211461846FEF782FD0CE07B68DB6D7F
:103F800043F020027B68DA65012387F8D73002E02E
:103F900000BF00E000BF7B68002283F8582097F83C
:103FA000D7301846D837BD4680BD80B584B000AF45
:103FB00078600023BB607B681B681846FEF740FFF3
:103FC0000346002B40F088807B681B689A683F237B
:103FD000C8F200031340002B0DD07B68DB6D43F06B
:103FE00010027B68DA657B681B6E43F001027B6818
:103FF0001A66012371E07B681B681846FEF7F8FE1D
:104000007B681B68B3F1A04F07D07B681A684FF438
:104010008073C5F200039A4204D14FF44073C5F295
:10402000000303E04FF4E063C5F200031846FEF717
:1040300039FD034603F40003002B19D040F20003BE
:10404000C2F200031B689A0942F66353C0F23E5362
:10405000A3FB02239B095A1C13465B0013449B00DD
:10406000BB6002E0BB68013BBB60BB68002BF9D1C1
:10407000FEF770FCF86028E07B681B681846FEF7C6
:10408000DFFE0346002B04D17B681B681846FEF751
:10409000AFFEFEF75FFC0246FB68D31A022B14D971
:1040A0007B681B681B6803F00103012B0DD07B6844
:1040B000DB6D43F010027B68DA657B681B6E43F0B2
:1040C00001027B681A66012307E07B681B681B6896
:1040D00003F00103012BCFD1002318461037BD4652
:1040E00080BD80B584B000AF78607B681B681846DF
:1040F000FEF7B9FEF8607B681B681846FEF7A0FE65
:104100000346002B47D0FB68002B44D17B681B681B
:104110009B6803F00D03012B0CD17B681B681846CC
:10412000FEF77AFE7B681B6803221A60FEF712FC1A
:10413000B86029E07B68DB6D43F010027B68DA65CC
:104140007B681B6E43F001027B681A66012323E043
:10415000FEF700FC0246BB68D31A022B14D97B6819
:104160001B689B6803F00103002B0DD07B68DB6D9F
:1041700043F010027B68DA657B681B6E43F0010236
:104180007B681A66012307E07B681B689B6803F065
:104190000103002BDCD1002318461037BD4680BD3B
:1041A00080B483B000AF78607B689B6803F0010344
:1041B000012B01D1012300E0002318460C37BD4636
:1041C0005DF8047B704780B483B000AF78603960DD
:1041D0007B689B6823F0404323F03F033A6802F07A
:1041E0008042134343F000427B689A6000BF0C3763
:1041F000BD465DF8047B704780B483B000AF786043
:104200007B689B6803F00043B3F1004F01D10123A9
:1042100000E0002318460C37BD465DF8047B70476C
:1042200080B483B000AF78607B689B6803F00403C0
:10423000042B01D1012300E0002318460C37BD46B2
:104240005DF8047B704780B584B000AF786039605A
:104250000023BB607B6893F85830012B01D1022307
:1042600050E07B68012283F858207868FFF739FF17
:104270000346FB73FB7B002B39D17B68DB6D23F49A
:10428000885323F0020343F002027B68DA657B68FF
:104290001B6839681846FFF796FF17E0BB680133C3
:1042A000BB60BA684DF60163C0F204039A420DD9AF
:1042B0007B68DB6D23F0120343F010027B68DA6544
:1042C0007B68002283F8582001231BE07B681B6871
:1042D0001846FFF791FF0346002BDFD17B68DB6DAB
:1042E00023F0030343F001027B68DA6505E07B6895
:1042F000DB6D43F010027B68DA657B68002283F88F
:104300005820FB7B18461037BD4680BD90B5A1B044
:1043100000AF78603960002387F87F307B6893F8BE
:104320005830012B01D1022317E17B68012283F869
:10433000582000237B660023BB667B681B68B3F1B3
:10434000A04F05D14FF48073C5F20003BB600FE0AE
:104350007B681A684FF48063C5F200039A4205D166
:104360004FF4A063C5F20003BB6001E00023BB6013
:10437000BB68002B0BD17B68DB6D43F020027B68B0
:10438000DA657B68002283F858200123E5E0BB68EA
:104390001846FFF745FFB8677B681B681846FFF7AC
:1043A0003FFF0346002B40F0C780BB6F002B40F05F
:1043B000C3807B681B68B3F1A04F07D07B681A6885
:1043C0004FF48073C5F200039A4204D14FF4407356
:1043D000C5F2000303E04FF4E063C5F200037B671E
:1043E0003B681B68002B5AD07B6F9B6823F46042AC
:1043F0003B6859687B6893F838305B030B431A437A
:104400007B6F9A607B681B68B3F1A04F07D07B6815
:104410001A684FF48073C5F200039A4212D14FF02C
:10442000A040FFF7BDFE04464FF48070C5F20000C7
:10443000FFF7B6FE03462343002B0CBF01230023E6
:10444000DBB21BE04FF48060C5F20000FFF7A8FE6E
:1044500004464FF4A060C5F20000FFF7A1FE03463A
:104460001C434FF4C060C5F20000FFF799FE0346FD
:104470002343002B0CBF01230023DBB2002B65D0AC
:104480007B6F9B6823F4716323F00F033A68116814
:104490003A6892680A431A437B6F9A6056E07B6FD2
:1044A0009B6823F460427B6F9A607B681B68B3F162
:1044B000A04F07D07B681A684FF48073C5F20003E1
:1044C0009A4212D14FF0A040FFF76AFE04464FF423
:1044D0008070C5F20000FFF763FE03462343002B04
:1044E0000CBF01230023DBB21BE04FF48060C5F258
:1044F0000000FFF755FE04464FF4A060C5F200002F
:10450000FFF74EFE03461C434FF4C060C5F20000A7
:10451000FFF746FE03462343002B0CBF0123002375
:10452000DBB2002B12D07B6F9B6823F4716323F006
:104530000F037A6F936009E07B68DB6D43F0200224
:104540007B68DA65012387F87F3000E000BF7B6875
:10455000002283F8582097F87F3018468437BD46EC
:1045600090BD80B485B000AF78607B6803F007032E
:10457000FB604FF46D43CEF20003DB68BB60BA68AA
:104580004FF6FF031340BB60FB681A02BB6813437E
:1045900043F0BF6343F40033BB604FF46D43CEF28E
:1045A0000003BA68DA6000BF1437BD465DF8047BCB
:1045B000704780B400AF4FF46D43CEF20003DB6868
:1045C0001B0A03F007031846BD465DF8047B7047DD
:1045D00080B483B000AF0346FB7197F90730002B1E
:1045E0000EDBFB7903F01F014FF46143CEF20003B1
:1045F00097F907205209012000FA01F143F822102F
:1046000000BF0C37BD465DF8047B704780B483B0B3
:1046100000AF03463960FB7197F90730002B0EDBC2
:104620003B68D9B24FF46143CEF2000397F90720FB
:104630000901C9B213440A4683F800230EE03B681F
:10464000D9B24FF46D43CEF20003FA7902F00F02B3
:10465000043A0901C9B213440A461A7600BF0C375E
:10466000BD465DF8047B704780B489B000AFF86048
:10467000B9607A60FB6803F00703FB61FB69C3F173
:104680000703042B28BF0423BB61FB690433062BFB
:1046900002D9FB69033B00E000237B614FF0FF324E
:1046A000BB6902FA03F3DA43BB681A407B699A409C
:1046B0004FF0FF317B6901FA03F3D9437B680B406C
:1046C000134318462437BD465DF8047B704780B518
:1046D00082B000AF78607B68013BB3F1807F01D38B
:1046E000012318E04EF21003CEF200037A68013A7B
:1046F0005A600F214FF0FF30FFF788FF4EF2100392
:10470000CEF2000300229A604EF21003CEF20003B4
:1047100007221A60002318460837BD4680BD80B5C1
:1047200082B000AF78607868FFF71BFF00BF0837E2
:10473000BD4680BD80B586B000AF0346B9607A60E3
:10474000FB73FFF736FF78617A68B9687869FFF71D
:104750008BFF024697F90F3011461846FFF756FFB8
:1047600000BF1837BD4680BD80B582B000AF03469C
:10477000FB7197F907301846FFF72AFF00BF08378B
:10478000BD4680BD80B582B000AF78607868FFF725
:104790009EFF034618460837BD4680BD80B582B0EF
:1047A00000AF78607B68002B01D1012314E07B68A7
:1047B0001B79DBB2002B05D17B6800225A71786827
:1047C000FCF785FA7B6802221A717B6800221A6165
:1047D0007B6801221A71002318460837BD4680BD48
:1047E00080B485B000AF786039607B68002B01D160
:1047F00001235CE07B685B79012B01D1022356E049
:104800007B6801225A717B6802221A717B681B68DF
:1048100019683B6803F0100301229A407B681B680B
:104820000A431A6040F20003C2F200031B689A09AF
:1048300042F66353C0F23E53A3FB02239B090133AC
:10484000FB6002E0FB68013BFB60FB68002BF9D1D9
:104850003B68002B0FD17B681B681B6803F03E038D
:10486000022B1DD17B681B685A687B681B6842F06D
:1048700001025A6014E07B681B681B6803F478121D
:104880003B6803F01003022101FA03F39A4207D1B7
:104890007B681B685A687B681B6842F002025A609A
:1048A0007B6801221A717B6800225A710023184626
:1048B0001437BD465DF8047B704780B487B000AF05
:1048C000F860B9607A603B6000237B61FB68002B75
:1048D00001D1012318E0FB681B68DB6BFB681B68D8
:1048E0007B61BB68002B05D17A697B681344083370
:1048F0007B6104E07A697B68134414337B617B69D4
:104900001A463B681360002318461C37BD465DF805
:10491000047B704780B58AB000AFF860B9607A60F8
:104920000023FB77FB68002B02D0BB68002B01D172
:104930000123A7E1BB689B68042BFB685B79012B13
:1049400001D102239EE1FB6801225A71FB68022219
:104950001A71BB689B68042B7AD1FDF7FBFFB86125
:104960007B68002B3DD118E0FDF7F4FF0246BB69E0
:10497000D31A012B11D9FB681B685B6B03F400434E
:10498000002B0AD0FB681B6943F00802FB681A6120
:10499000FB6803221A71032374E1FB681B685B6BDD
:1049A00003F40043002BDFD1FB681B68BA68526A2E
:1049B0001A6420E0FDF7CEFF0246BB69D31A012B33
:1049C0000FD9FB681B685B6B002B0ADAFB681B695D
:1049D00043F00802FB681A61FB6803221A71032383
:1049E00050E1FB681B685B6B002BE3DBFB681B681B
:1049F000BA68526A5A64FB681B689A6C7B6803F059
:104A0000100340F2FF3101FA03F3DB4302EA030132
:104A1000BB689A6A7B6803F010039A40FB681B68C6
:104A20000A439A64FB681B68DA6C7B6803F0100326
:104A3000FF2101FA03F3DB4302EA0301BB68DA6AF0
:104A40007B6803F010039A40FB681B680A43DA6432
:104A5000BB68DB69012B1DD1FB681B689B6B7B620C
:104A60007B6803F010031F2202FA03F3DB437A6A28
:104A700013407B62BB681B6A7B617B6803F0100399
:104A80007A6902FA03F37A6A13437B62FB681B6854
:104A90007A6A9A63FB681B68DB6B7B627B6803F056
:104AA0001003072202FA03F3DB437A6A13407B62A6
:104AB000BB689B69012B02D100233B620FE0BB68FE
:104AC0009B69022B02D101233B6208E0BB685B6952
:104AD000002B02D101233B6201E000233B62BB6853
:104AE0009A68BB685B6913433A6A13437B617B68CE
:104AF00003F010034FF4807202FA03F3DB437A6A87
:104B000013407B62BB681B79012B02D14FF4807389
:104B100000E000237A6913437B617B6803F0100394
:104B20004FF4007202FA03F3DB437A6A13407B62AC
:104B3000BB685B79012B02D14FF4007300E00023C6
:104B40007A6913437B617B6A23F440437B62BB68D1
:104B50001B68022B1AD101F0A2FB38613A694FF4AD
:104B6000D043C0F689139A4204D97B6A43F40043C8
:104B70007B6212E03A694FF43443C0F2C4439A4274
:104B80000AD97B6A43F480437B6206E0BB681B68FA
:104B90007A6A13437B6200E000BF7B6803F0100376
:104BA0007A6902FA03F37A6A13437B62FB681B6833
:104BB0007A6ADA63FB681B6819687B6803F0100384
:104BC0004FF4804202FA03F3DA43FB681B680A40A1
:104BD0001A60FB681B681B687B627B6803F010032C
:104BE00040F6FE7202FA03F3DB437A6A13407B62FB
:104BF000BB68DB687B617B6803F010037A6902FAAB
:104C000003F37A6A13437B62FB681B687A6A1A6053
:104C1000FB681B6819687B6803F01003C02202FA66
:104C200003F3DA43FB681B680A401A60BB68DB6861
:104C30009B0803F00F037B61BB681B699B081B0289
:104C400003F470637A6913437B61FB681B681A6E17
:104C50007B6803F0100340F60F7101FA03F3DB43A6
:104C600002EA03017B6803F010037A699A40FB684B
:104C70001B680A431A66FB6801221A71FB6800224E
:104C80005A71FB7F18462837BD4680BD80B58AB073
:104C900000AFF860B9607A60002387F82730FB68BE
:104CA000002B02D0BB68002B03D1012387F82730EB
:104CB0001DE1FB681B79DBB2022B03D1012387F8CE
:104CC000273014E1FB685B79012B01D1022310E14D
:104CD000FB6801225A71FB681B68DA6B7B6803F082
:104CE0001003072101FA03F31340BB61FB681B6843
:104CF00019687B6803F01003012202FA03F3DA4318
:104D0000FB681B680A401A600120FDF72FFEFB6854
:104D10001B68D96B7B6803F01003072202FA03F3C8
:104D2000DA43FB681B680A40DA63FB681B68196892
:104D30007B6803F010034FF480429A40FB681B68C5
:104D40000A431A6010233B620823FB614DE0FB68B5
:104D50001B689A6B7B6803F010031F2101FA03F3B1
:104D6000DB4302EA03017B6803F010033A6A9A40CE
:104D7000FB681B680A439A6340F20003C2F2000317
:104D80001B689A0942F66353C0F23E53A3FB022309
:104D90009B095A1C13469B0013447B6102E07B690C
:104DA000013B7B617B69002BF9D1FB681B685A6B67
:104DB0007B6803F010034FF4804101FA03F31A40BB
:104DC0007B6803F010034FF4804101FA03F39A4229
:104DD00004D13A6AFB69D31A3B6203E03A6AFB6981
:104DE00013443B62FB695B08FB61FB69002BAED19E
:104DF000FB681B689A6B7B6803F010031F2101FAA4
:104E000003F3DB4302EA03017B6803F010033A6A11
:104E10009A40FB681B680A439A6340F20003C2F29F
:104E200000031B689A0942F66353C0F23E53A3FB8A
:104E300002239B095A1C13469B0013447B6102E02A
:104E40007B69013B7B617B69002BF9D1FB681B68A7
:104E50005A6B7B6803F010034FF4804101FA03F3AF
:104E60001340002B1AD13B6A1E2B02D83B6A013338
:104E70003B62FB681B689A6B7B6803F010031F2181
:104E800001FA03F3DB4302EA03017B6803F010033A
:104E90003A6A9A40FB681B680A439A63FB681B687E
:104EA00019687B6803F010034FF4804202FA03F3A1
:104EB000DA43FB681B680A401A60BB683A6A1A62E8
:104EC000BB680122DA61FB681B68DA6B7B6803F060
:104ED0001003072101FA03F3DB4302EA0301FB6835
:104EE0001B68BA690A43DA63FB6800225A7197F8B3
:104EF000273018462837BD4680BD80B485B000AF46
:104F000078600023FB737B6893F82530DBB2022BBB
:104F100005D07B680422DA630123FB7337E07B68EA
:104F20001B681A687B681B6822F00E021A607B6897
:104F30009B6C1A687B689B6C22F480721A607B6899
:104F40001B681A687B681B6822F001021A607B6884
:104F50005B6C03F01F027B681B6C012101FA02F2FB
:104F60005A607B68DB6C7A68126D5A607B685B6D97
:104F7000002B0CD07B685B6D1A687B685B6D22F43C
:104F800080721A607B689B6D7A68D26D5A607B680C
:104F9000012283F825207B68002283F82420FB7BF4
:104FA00018461437BD465DF8047B704780B584B061
:104FB00000AF78600023FB737B6893F82530DBB289
:104FC000022B0DD07B680422DA637B68012283F810
:104FD00025207B68002283F824200123FB7347E00F
:104FE0007B681B681A687B681B6822F00E021A60D7
:104FF0007B681B681A687B681B6822F001021A60D4
:105000007B689B6C1A687B689B6C22F480721A60C8
:105010007B685B6C03F01F027B681B6C012101FA4B
:1050200002F25A607B68DB6C7A68126D5A607B68AA
:105030005B6D002B0CD07B685B6D1A687B685B6DC9
:1050400022F480721A607B689B6D7A68D26D5A6018
:105050007B68012283F825207B68002283F82420C6
:105060007B689B6B002B03D07B689B6B78689847B1
:10507000FB7B18461037BD4680BD80B487B000AFBB
:105080007860396000237B618EE13B681A680121FA
:105090007B6901FA03F31340FB60FB68002B00F00F
:1050A00080813B685B6803F00303012B05D03B68FC
:1050B0005B6803F00303022B30D17B689B683B6184
:1050C0007B695B00032202FA03F3DB433A69134076
:1050D0003B613B68DA687B695B0002FA03F33A697B
:1050E00013433B617B683A699A607B685B683B610C
:1050F00001227B6902FA03F3DB433A6913403B6107
:105100003B685B681B0903F001027B6902FA03F349
:105110003A6913433B617B683A695A603B685B6854
:1051200003F00303032B17D07B68DB683B617B69CB
:105130005B00032202FA03F3DB433A6913403B614D
:105140003B689A687B695B0002FA03F33A69134390
:105150003B617B683A69DA603B685B6803F0030394
:10516000022B23D17B69DA087B68083253F822309E
:105170003B617B6903F007039B000F2202FA03F3F4
:10518000DB433A6913403B613B681A697B6903F072
:1051900007039B0002FA03F33A6913433B617B69FF
:1051A000DA087B680832396943F822107B681B688B
:1051B0003B617B695B00032202FA03F3DB433A693C
:1051C00013403B613B685B6803F003027B695B0053
:1051D00002FA03F33A6913433B617B683A691A6048
:1051E0003B685B6803F44033002B00F0DA804FF437
:1051F0008053C4F202031A6E4FF48053C4F20203C8
:1052000042F001021A664FF48053C4F202031B6E8F
:1052100003F00103BB60BB680023C4F201037A6999
:105220009208023253F822303B617B6903F003039A
:105230009B000F2202FA03F3DB433A6913403B6100
:105240007B68B3F1904F2ED07A684FF48063C4F638
:1052500000039A4225D07A684FF40063C4F6000335
:105260009A421CD07A684FF44063C4F600039A4215
:1052700013D07A684FF48053C4F600039A420AD0E0
:105280007A684FF4A053C4F600039A4201D1052373
:105290000AE0062308E0042306E0032304E00223D7
:1052A00002E0012300E000237A6902F00302920089
:1052B00093403A6913433B610023C4F201037A69C6
:1052C00092080232396943F822104FF48063C4F225
:1052D00001039B683B61FB68DB433A6913403B6118
:1052E0003B685B6803F48013002B03D03A69FB68CA
:1052F00013433B614FF48063C4F201033A699A603F
:105300004FF48063C4F20103DB683B61FB68DB435D
:105310003A6913403B613B685B6803F40013002B60
:1053200003D03A69FB6813433B614FF48063C4F2D6
:1053300001033A69DA604FF48063C4F201035B68E9
:105340003B61FB68DB433A6913403B613B685B6848
:1053500003F40033002B03D03A69FB6813433B612D
:105360004FF48063C4F201033A695A604FF48063DA
:10537000C4F201031B683B61FB68DB433A691340DD
:105380003B613B685B6803F48033002B03D03A69D0
:10539000FB6813433B614FF48063C4F201033A6935
:1053A0001A607B6901337B613B681A687B6922FA6A
:1053B00003F3002B7FF469AE00BF00BF1C37BD466E
:1053C0005DF8047B704780B483B000AF78600B4613
:1053D0007B8013467B707B78002B03D07A887B68B8
:1053E0009A6102E07A887B689A6200BF0C37BD46FA
:1053F0005DF8047B704780B485B000AF78600B46E1
:105400007B807B685B69FB607A88FB6813401A04C9
:10541000FB68D9437B880B401A437B689A6100BFC5
:105420001437BD465DF8047B704780B582B000AF8D
:105430000346FB804FF48063C4F201035A69FB8882
:105440001340002B09D04FF48063C4F20103FA88A3
:105450005A61FB88184600F004F800BF0837BD46C3
:1054600080BD80B483B000AF0346FB8000BF0C3723
:10547000BD465DF8047B704780B485B000AF7860AE
:105480007B68002B63D14FF4E043C4F200031B6838
:1054900003F4C063B3F5806F4AD14FF4E043C4F224
:1054A0000003D3F880204FF4E043C4F2000322F459
:1054B0008072C3F880204FF4E043C4F200031B68FD
:1054C00023F4C0624FF4E043C4F2000342F40072DC
:1054D0001A6040F20003C2F200031B68322203FB91
:1054E00002F24DF68363C4F21B33A3FB02239B0C31
:1054F0000133FB6002E0FB68013BFB604FF4E043DB
:10550000C4F200035B6903F48063B3F5806F02D1DA
:10551000FB68002BEFD14FF4E043C4F200035B695A
:1055200003F48063B3F5806F40F08680032384E04A
:105530004FF4E043C4F20003D3F880204FF4E0437B
:10554000C4F2000322F48072C3F8802074E07B6808
:10555000B3F5007F62D14FF4E043C4F200031B684F
:1055600003F4C063B3F5806F49D14FF4E043C4F254
:105570000003D3F880204FF4E043C4F2000342F468
:105580008072C3F880204FF4E043C4F200031B682C
:1055900023F4C0624FF4E043C4F2000342F400720B
:1055A0001A6040F20003C2F200031B68322203FBC0
:1055B00002F24DF68363C4F21B33A3FB02239B0C60
:1055C0000133FB6002E0FB68013BFB604FF4E0430A
:1055D000C4F200035B6903F48063B3F5806F02D10A
:1055E000FB68002BEFD14FF4E043C4F200035B698A
:1055F00003F48063B3F5806F1ED103231DE04FF4E5
:10560000E043C4F20003D3F880204FF4E043C4F237
:10561000000342F48072C3F880200DE04FF4E043B1
:10562000C4F200031B6823F4C0624FF4E043C4F2E9
:10563000000342F480621A60002318461437BD4606
:105640005DF8047B704780B400AF4FF4E043C4F2D0
:1056500000039A684FF4E043C4F2000342F480422E
:105660009A6000BFBD465DF8047B704780B588B086
:1056700000AF78607B68002B01D10123EDE37B68EC
:105680001B6803F00103002B00F0A3804FF480534C
:10569000C4F202039B6803F00C03BB614FF4805318
:1056A000C4F20203DB6803F003037B61BB690C2BCC
:1056B00002D17B69032B02D0BB69082B0ED14FF4BA
:1056C0008053C4F202031B6803F40033002B7FD025
:1056D0007B685B68002B7BD10123BEE37B685B6842
:1056E000B3F5803F0CD14FF48053C4F202031A6823
:1056F0004FF48053C4F2020342F480321A6035E062
:105700007B685B68B3F5A02F18D14FF48053C4F2C7
:1057100002031A684FF48053C4F2020342F4802259
:105720001A604FF48053C4F202031A684FF4805396
:10573000C4F2020342F480321A6017E04FF480533F
:10574000C4F202031A684FF48053C4F2020322F435
:1057500080321A604FF48053C4F202031A684FF487
:105760008053C4F2020322F480221A607B685B68D3
:10577000002B16D0FDF7EEF8386108E0FDF7EAF8E7
:1057800002463B69D31A642B01D9032365E34FF426
:105790008053C4F202031B6803F40033002BEDD0E6
:1057A00017E0FDF7D7F8386108E0FDF7D3F80246B7
:1057B0003B69D31A642B01D903234EE34FF4805382
:1057C000C4F202031B6803F40033002BEDD100E0A8
:1057D00000BF7B681B6803F00203002B00F0A08071
:1057E0004FF48053C4F202039B6803F00C03BB61C7
:1057F0004FF48053C4F20203DB6803F003037B61C0
:10580000BB690C2B02D17B69022B02D0BB69042B34
:105810002BD14FF48053C4F202031B6803F480635E
:10582000002B05D07B68DB68002B01D1012314E33A
:105830004FF48053C4F202035B6823F0FE417B689F
:105840001B691A064FF48053C4F202030A435A60DC
:1058500040F20403C2F200031B681846FDF723F868
:105860000346002B5BD00123F7E27B68DB68002B4B
:1058700032D04FF48053C4F202031A684FF48053BD
:10588000C4F2020342F480721A60FDF763F83861D3
:1058900008E0FDF75FF802463B69D31A022B01D9F5
:1058A0000323DAE24FF48053C4F202031B6803F4CB
:1058B0008063002BEDD04FF48053C4F202035B6889
:1058C00023F0FE417B681B691A064FF48053C4F233
:1058D00002030A435A6023E04FF48053C4F20203E8
:1058E0001A684FF48053C4F2020322F480721A60E3
:1058F000FDF730F8386108E0FDF72CF802463B6907
:10590000D31A022B01D90323A7E24FF48053C4F228
:1059100002031B6803F48063002BEDD100E000BF9D
:105920007B681B6803F00803002B4ED07B685B6923
:10593000002B25D04FF48053C4F20203D3F89420F7
:105940004FF48053C4F2020342F00102C3F89420E2
:10595000FDF700F8386108E0FCF7FCFF02463B6900
:10596000D31A022B01D9032377E24FF48053C4F2F8
:105970000203D3F8943003F00203002BECD024E0B0
:105980004FF48053C4F20203D3F894204FF48053B1
:10599000C4F2020322F00102C3F89420FCF7DAFFFC
:1059A000386108E0FCF7D6FF02463B69D31A022BA8
:1059B00001D9032351E24FF48053C4F20203D3F818
:1059C000943003F00203002BECD17B681B6803F0DA
:1059D0000403002B00F0E8800023FB774FF4805392
:1059E000C4F202039B6D03F08053002B01D101230D
:1059F00000E00023002B16D04FF48053C4F20203C2
:105A00009A6D4FF48053C4F2020342F080529A65BB
:105A10004FF48053C4F202039B6D03F08053FB608C
:105A2000FB680123FB774FF4E043C4F200031B68DB
:105A300003F48073002B21D14FF4E043C4F2000340
:105A40001A684FF4E043C4F2000342F480721A6013
:105A5000FCF780FF386108E0FCF77CFF02463B69F9
:105A6000D31A022B01D90323F7E14FF4E043C4F228
:105A700000031B6803F48073002BEDD07B689B68E8
:105A8000012B0ED14FF48053C4F20203D3F89020BF
:105A90004FF48053C4F2020342F00102C3F8902095
:105AA0003CE07B689B68052B1CD14FF48053C4F20B
:105AB0000203D3F890204FF48053C4F2020342F063
:105AC0000402C3F890204FF48053C4F20203D3F8C9
:105AD00090204FF48053C4F2020342F00102C3F855
